{"contracts/Donation.sol":{"Donation":{"abi":[{"inputs":[],"stateMutability":"nonpayable","type":"constructor"},{"anonymous":false,"inputs":[{"indexed":false,"internalType":"address","name":"sender","type":"address"},{"indexed":false,"internalType":"uint256","name":"amount","type":"uint256"}],"name":"Donate","type":"event"},{"inputs":[],"name":"donate","outputs":[],"stateMutability":"payable","type":"function"},{"inputs":[{"internalType":"address","name":"","type":"address"}],"name":"donors","outputs":[{"internalType":"uint256","name":"numPayments","type":"uint256"},{"internalType":"uint256","name":"paymentsSum","type":"uint256"}],"stateMutability":"view","type":"function"},{"inputs":[{"internalType":"uint256","name":"","type":"uint256"}],"name":"donorsAddresses","outputs":[{"internalType":"address","name":"","type":"address"}],"stateMutability":"view","type":"function"},{"inputs":[],"name":"getDonors","outputs":[{"internalType":"address[]","name":"","type":"address[]"}],"stateMutability":"view","type":"function"},{"inputs":[],"name":"getOwner","outputs":[{"internalType":"address","name":"","type":"address"}],"stateMutability":"view","type":"function"},{"inputs":[{"internalType":"address","name":"donor","type":"address"}],"name":"getPaymentsSum","outputs":[{"internalType":"uint256","name":"","type":"uint256"}],"stateMutability":"view","type":"function"},{"inputs":[{"internalType":"address payable","name":"recipient","type":"address"},{"internalType":"uint256","name":"amount","type":"uint256"}],"name":"withdraw","outputs":[],"stateMutability":"nonpayable","type":"function"}],"devdoc":{"kind":"dev","methods":{},"version":1},"evm":{"bytecode":{"linkReferences":{},"object":"608060405234801561001057600080fd5b5061002b6711167adc9750f0dc60c01b61008a60201b60201c565b610045674bd6158af17d1f5f60c01b61008a60201b60201c565b336000806101000a81548173ffffffffffffffffffffffffffffffffffffffff021916908373ffffffffffffffffffffffffffffffffffffffff16021790555061008d565b50565b610e8d8061009c6000396000f3fe6080604052600436106100705760003560e01c8063ca0cdea81161004e578063ca0cdea814610108578063d3cbd51a14610146578063ed88c68e14610183578063f3fef3a31461018d57610070565b80636e508a8e14610075578063893d20e8146100b257806396f300d4146100dd575b600080fd5b34801561008157600080fd5b5061009c60048036038101906100979190610a09565b6101b6565b6040516100a99190610a4f565b60405180910390f35b3480156100be57600080fd5b506100c761023e565b6040516100d49190610a79565b60405180910390f35b3480156100e957600080fd5b506100f26102a2565b6040516100ff9190610b52565b60405180910390f35b34801561011457600080fd5b5061012f600480360381019061012a9190610a09565b61036c565b60405161013d929190610b74565b60405180910390f35b34801561015257600080fd5b5061016d60048036038101906101689190610bc9565b610390565b60405161017a9190610a79565b60405180910390f35b61018b6103cf565b005b34801561019957600080fd5b506101b460048036038101906101af9190610c34565b610709565b005b60006101cc67dd71d705afc5624460c01b6109a3565b6101e0677bd25f4986dba19260c01b6109a3565b6101f4678ddcb0c651ab51e360c01b6109a3565b600160008373ffffffffffffffffffffffffffffffffffffffff1673ffffffffffffffffffffffffffffffffffffffff168152602001908152602001600020600101549050919050565b600061025467b21a2173cd82095b60c01b6109a3565b6102686794be94e2fa44949860c01b6109a3565b61027c670374506bacf0bf5e60c01b6109a3565b60008054906101000a900473ffffffffffffffffffffffffffffffffffffffff16905090565b60606102b8676eba3c7ee3edc07160c01b6109a3565b6102cc67457e61147f2ce53d60c01b6109a3565b6102e067ed3b24e66834c88c60c01b6109a3565b600280548060200260200160405190810160405280929190818152602001828054801561036257602002820191906000526020600020905b8160009054906101000a900473ffffffffffffffffffffffffffffffffffffffff1673ffffffffffffffffffffffffffffffffffffffff1681526020019060010190808311610318575b5050505050905090565b60016020528060005260406000206000915090508060000154908060010154905082565b600281815481106103a057600080fd5b906000526020600020016000915054906101000a900473ffffffffffffffffffffffffffffffffffffffff1681565b6103e36719adc25e74b1a7da60c01b6109a3565b6103f7674256a3a2328d66b460c01b6109a3565b61040b6720945b69a3e8a74d60c01b6109a3565b6000600160003373ffffffffffffffffffffffffffffffffffffffff1673ffffffffffffffffffffffffffffffffffffffff16815260200190815260200160002060000154905061046667440121610b31fb9a60c01b6109a3565b600160003373ffffffffffffffffffffffffffffffffffffffff1673ffffffffffffffffffffffffffffffffffffffff16815260200190815260200160002060000160008154809291906104b990610ca3565b91905055506104d267c90fb10427608b4260c01b6109a3565b6104e6671829eef12ec6245060c01b6109a3565b600160003373ffffffffffffffffffffffffffffffffffffffff1673ffffffffffffffffffffffffffffffffffffffff168152602001908152602001600020600201349080600181540180825580915050600190039060005260206000200160009091909190915055610563675513725680c1127a60c01b6109a3565b34600160003373ffffffffffffffffffffffffffffffffffffffff1673ffffffffffffffffffffffffffffffffffffffff16815260200190815260200160002060010160008282546105b59190610ceb565b925050819055506105d06737cfe2ed68cf16b760c01b6109a3565b6105e46729e7706528db8a2960c01b6109a3565b60008103610690576106006773c885a07d3d8da160c01b6109a3565b61061467bc683f076274830760c01b6109a3565b61062867a36d9762597215fc60c01b6109a3565b6002339080600181540180825580915050600190039060005260206000200160009091909190916101000a81548173ffffffffffffffffffffffffffffffffffffffff021916908373ffffffffffffffffffffffffffffffffffffffff1602179055506106a5565b6106a467d010f5a09c83c94260c01b6109a3565b5b6106b967eb304aab096d6df660c01b6109a3565b6106cd67826887cd67b98e8460c01b6109a3565b7f0553260a2e46b0577270d8992db02d30856ca880144c72d6e9503760946aef1333346040516106fe929190610d1f565b60405180910390a150565b61071d676167d08e62c3e57660c01b6109a3565b6107316732678d4dd3fe966d60c01b6109a3565b610745678a7d2d0550f9306560c01b6109a3565b61075967a00493197fab27a860c01b6109a3565b61076d67f0e8d4cda7132b6d60c01b6109a3565b3373ffffffffffffffffffffffffffffffffffffffff1660008054906101000a900473ffffffffffffffffffffffffffffffffffffffff1673ffffffffffffffffffffffffffffffffffffffff16146107fb576040517f08c379a00000000000000000000000000000000000000000000000000000000081526004016107f290610da5565b60405180910390fd5b61080f67bc2381af2b12509560c01b6109a3565b61082367aaf901d5401a80d560c01b6109a3565b610837676f923a6d45d9a32b60c01b6109a3565b61084b67dfa67b2f958ef62160c01b6109a3565b8061086067f15d0d5398ebd05060c01b6109a3565b610874677fc49b95c3e5956a60c01b6109a3565b6108886759eba0ca20d557d360c01b6109a3565b61089c67c59f75bbbc7b682660c01b6109a3565b478111156108df576040517f08c379a00000000000000000000000000000000000000000000000000000000081526004016108d690610e37565b60405180910390fd5b6108f367a8f62f56c5a2df8160c01b6109a3565b61090767e1e3a189789bfe6d60c01b6109a3565b61091b67878b538b08d3302a60c01b6109a3565b61092f67fbdcb6b1628d7fa660c01b6109a3565b61094367a0ae10c828e5fb2760c01b6109a3565b6109576780c2729aa0b38a1560c01b6109a3565b8273ffffffffffffffffffffffffffffffffffffffff166108fc839081150290604051600060405180830381858888f1935050505015801561099d573d6000803e3d6000fd5b50505050565b50565b600080fd5b600073ffffffffffffffffffffffffffffffffffffffff82169050919050565b60006109d6826109ab565b9050919050565b6109e6816109cb565b81146109f157600080fd5b50565b600081359050610a03816109dd565b92915050565b600060208284031215610a1f57610a1e6109a6565b5b6000610a2d848285016109f4565b91505092915050565b6000819050919050565b610a4981610a36565b82525050565b6000602082019050610a646000830184610a40565b92915050565b610a73816109cb565b82525050565b6000602082019050610a8e6000830184610a6a565b92915050565b600081519050919050565b600082825260208201905092915050565b6000819050602082019050919050565b610ac9816109cb565b82525050565b6000610adb8383610ac0565b60208301905092915050565b6000602082019050919050565b6000610aff82610a94565b610b098185610a9f565b9350610b1483610ab0565b8060005b83811015610b45578151610b2c8882610acf565b9750610b3783610ae7565b925050600181019050610b18565b5085935050505092915050565b60006020820190508181036000830152610b6c8184610af4565b905092915050565b6000604082019050610b896000830185610a40565b610b966020830184610a40565b9392505050565b610ba681610a36565b8114610bb157600080fd5b50565b600081359050610bc381610b9d565b92915050565b600060208284031215610bdf57610bde6109a6565b5b6000610bed84828501610bb4565b91505092915050565b6000610c01826109ab565b9050919050565b610c1181610bf6565b8114610c1c57600080fd5b50565b600081359050610c2e81610c08565b92915050565b60008060408385031215610c4b57610c4a6109a6565b5b6000610c5985828601610c1f565b9250506020610c6a85828601610bb4565b9150509250929050565b7f4e487b7100000000000000000000000000000000000000000000000000000000600052601160045260246000fd5b6000610cae82610a36565b91507fffffffffffffffffffffffffffffffffffffffffffffffffffffffffffffffff8203610ce057610cdf610c74565b5b600182019050919050565b6000610cf682610a36565b9150610d0183610a36565b9250828201905080821115610d1957610d18610c74565b5b92915050565b6000604082019050610d346000830185610a6a565b610d416020830184610a40565b9392505050565b600082825260208201905092915050565b7f596f7520617265206e6f7420616e206f776e65722e0000000000000000000000600082015250565b6000610d8f601583610d48565b9150610d9a82610d59565b602082019050919050565b60006020820190508181036000830152610dbe81610d82565b9050919050565b7f5769746864726177616c20616d6f756e7420657863656564732062616c616e6360008201527f652e000000000000000000000000000000000000000000000000000000000000602082015250565b6000610e21602283610d48565b9150610e2c82610dc5565b604082019050919050565b60006020820190508181036000830152610e5081610e14565b905091905056fea2646970667358221220c28ea8407caaaecd2cfa547d4dc3ca7c92a3dc80b25337d1aeed8c8a82dff73664736f6c63430008140033","opcodes":"PUSH1 0x80 PUSH1 0x40 MSTORE CALLVALUE DUP1 ISZERO PUSH2 0x10 JUMPI PUSH1 0x0 DUP1 REVERT JUMPDEST POP PUSH2 0x2B PUSH8 0x11167ADC9750F0DC PUSH1 0xC0 SHL PUSH2 0x8A PUSH1 0x20 SHL PUSH1 0x20 SHR JUMP JUMPDEST PUSH2 0x45 PUSH8 0x4BD6158AF17D1F5F PUSH1 0xC0 SHL PUSH2 0x8A PUSH1 0x20 SHL PUSH1 0x20 SHR JUMP JUMPDEST CALLER PUSH1 0x0 DUP1 PUSH2 0x100 EXP DUP2 SLOAD DUP2 PUSH20 0xFFFFFFFFFFFFFFFFFFFFFFFFFFFFFFFFFFFFFFFF MUL NOT AND SWAP1 DUP4 PUSH20 0xFFFFFFFFFFFFFFFFFFFFFFFFFFFFFFFFFFFFFFFF AND MUL OR SWAP1 SSTORE POP PUSH2 0x8D JUMP JUMPDEST POP JUMP JUMPDEST PUSH2 0xE8D DUP1 PUSH2 0x9C PUSH1 0x0 CODECOPY PUSH1 0x0 RETURN INVALID PUSH1 0x80 PUSH1 0x40 MSTORE PUSH1 0x4 CALLDATASIZE LT PUSH2 0x70 JUMPI PUSH1 0x0 CALLDATALOAD PUSH1 0xE0 SHR DUP1 PUSH4 0xCA0CDEA8 GT PUSH2 0x4E JUMPI DUP1 PUSH4 0xCA0CDEA8 EQ PUSH2 0x108 JUMPI DUP1 PUSH4 0xD3CBD51A EQ PUSH2 0x146 JUMPI DUP1 PUSH4 0xED88C68E EQ PUSH2 0x183 JUMPI DUP1 PUSH4 0xF3FEF3A3 EQ PUSH2 0x18D JUMPI PUSH2 0x70 JUMP JUMPDEST DUP1 PUSH4 0x6E508A8E EQ PUSH2 0x75 JUMPI DUP1 PUSH4 0x893D20E8 EQ PUSH2 0xB2 JUMPI DUP1 PUSH4 0x96F300D4 EQ PUSH2 0xDD JUMPI JUMPDEST PUSH1 0x0 DUP1 REVERT JUMPDEST CALLVALUE DUP1 ISZERO PUSH2 0x81 JUMPI PUSH1 0x0 DUP1 REVERT JUMPDEST POP PUSH2 0x9C PUSH1 0x4 DUP1 CALLDATASIZE SUB DUP2 ADD SWAP1 PUSH2 0x97 SWAP2 SWAP1 PUSH2 0xA09 JUMP JUMPDEST PUSH2 0x1B6 JUMP JUMPDEST PUSH1 0x40 MLOAD PUSH2 0xA9 SWAP2 SWAP1 PUSH2 0xA4F JUMP JUMPDEST PUSH1 0x40 MLOAD DUP1 SWAP2 SUB SWAP1 RETURN JUMPDEST CALLVALUE DUP1 ISZERO PUSH2 0xBE JUMPI PUSH1 0x0 DUP1 REVERT JUMPDEST POP PUSH2 0xC7 PUSH2 0x23E JUMP JUMPDEST PUSH1 0x40 MLOAD PUSH2 0xD4 SWAP2 SWAP1 PUSH2 0xA79 JUMP JUMPDEST PUSH1 0x40 MLOAD DUP1 SWAP2 SUB SWAP1 RETURN JUMPDEST CALLVALUE DUP1 ISZERO PUSH2 0xE9 JUMPI PUSH1 0x0 DUP1 REVERT JUMPDEST POP PUSH2 0xF2 PUSH2 0x2A2 JUMP JUMPDEST PUSH1 0x40 MLOAD PUSH2 0xFF SWAP2 SWAP1 PUSH2 0xB52 JUMP JUMPDEST PUSH1 0x40 MLOAD DUP1 SWAP2 SUB SWAP1 RETURN JUMPDEST CALLVALUE DUP1 ISZERO PUSH2 0x114 JUMPI PUSH1 0x0 DUP1 REVERT JUMPDEST POP PUSH2 0x12F PUSH1 0x4 DUP1 CALLDATASIZE SUB DUP2 ADD SWAP1 PUSH2 0x12A SWAP2 SWAP1 PUSH2 0xA09 JUMP JUMPDEST PUSH2 0x36C JUMP JUMPDEST PUSH1 0x40 MLOAD PUSH2 0x13D SWAP3 SWAP2 SWAP1 PUSH2 0xB74 JUMP JUMPDEST PUSH1 0x40 MLOAD DUP1 SWAP2 SUB SWAP1 RETURN JUMPDEST CALLVALUE DUP1 ISZERO PUSH2 0x152 JUMPI PUSH1 0x0 DUP1 REVERT JUMPDEST POP PUSH2 0x16D PUSH1 0x4 DUP1 CALLDATASIZE SUB DUP2 ADD SWAP1 PUSH2 0x168 SWAP2 SWAP1 PUSH2 0xBC9 JUMP JUMPDEST PUSH2 0x390 JUMP JUMPDEST PUSH1 0x40 MLOAD PUSH2 0x17A SWAP2 SWAP1 PUSH2 0xA79 JUMP JUMPDEST PUSH1 0x40 MLOAD DUP1 SWAP2 SUB SWAP1 RETURN JUMPDEST PUSH2 0x18B PUSH2 0x3CF JUMP JUMPDEST STOP JUMPDEST CALLVALUE DUP1 ISZERO PUSH2 0x199 JUMPI PUSH1 0x0 DUP1 REVERT JUMPDEST POP PUSH2 0x1B4 PUSH1 0x4 DUP1 CALLDATASIZE SUB DUP2 ADD SWAP1 PUSH2 0x1AF SWAP2 SWAP1 PUSH2 0xC34 JUMP JUMPDEST PUSH2 0x709 JUMP JUMPDEST STOP JUMPDEST PUSH1 0x0 PUSH2 0x1CC PUSH8 0xDD71D705AFC56244 PUSH1 0xC0 SHL PUSH2 0x9A3 JUMP JUMPDEST PUSH2 0x1E0 PUSH8 0x7BD25F4986DBA192 PUSH1 0xC0 SHL PUSH2 0x9A3 JUMP JUMPDEST PUSH2 0x1F4 PUSH8 0x8DDCB0C651AB51E3 PUSH1 0xC0 SHL PUSH2 0x9A3 JUMP JUMPDEST PUSH1 0x1 PUSH1 0x0 DUP4 PUSH20 0xFFFFFFFFFFFFFFFFFFFFFFFFFFFFFFFFFFFFFFFF AND PUSH20 0xFFFFFFFFFFFFFFFFFFFFFFFFFFFFFFFFFFFFFFFF AND DUP2 MSTORE PUSH1 0x20 ADD SWAP1 DUP2 MSTORE PUSH1 0x20 ADD PUSH1 0x0 KECCAK256 PUSH1 0x1 ADD SLOAD SWAP1 POP SWAP2 SWAP1 POP JUMP JUMPDEST PUSH1 0x0 PUSH2 0x254 PUSH8 0xB21A2173CD82095B PUSH1 0xC0 SHL PUSH2 0x9A3 JUMP JUMPDEST PUSH2 0x268 PUSH8 0x94BE94E2FA449498 PUSH1 0xC0 SHL PUSH2 0x9A3 JUMP JUMPDEST PUSH2 0x27C PUSH8 0x374506BACF0BF5E PUSH1 0xC0 SHL PUSH2 0x9A3 JUMP JUMPDEST PUSH1 0x0 DUP1 SLOAD SWAP1 PUSH2 0x100 EXP SWAP1 DIV PUSH20 0xFFFFFFFFFFFFFFFFFFFFFFFFFFFFFFFFFFFFFFFF AND SWAP1 POP SWAP1 JUMP JUMPDEST PUSH1 0x60 PUSH2 0x2B8 PUSH8 0x6EBA3C7EE3EDC071 PUSH1 0xC0 SHL PUSH2 0x9A3 JUMP JUMPDEST PUSH2 0x2CC PUSH8 0x457E61147F2CE53D PUSH1 0xC0 SHL PUSH2 0x9A3 JUMP JUMPDEST PUSH2 0x2E0 PUSH8 0xED3B24E66834C88C PUSH1 0xC0 SHL PUSH2 0x9A3 JUMP JUMPDEST PUSH1 0x2 DUP1 SLOAD DUP1 PUSH1 0x20 MUL PUSH1 0x20 ADD PUSH1 0x40 MLOAD SWAP1 DUP2 ADD PUSH1 0x40 MSTORE DUP1 SWAP3 SWAP2 SWAP1 DUP2 DUP2 MSTORE PUSH1 0x20 ADD DUP3 DUP1 SLOAD DUP1 ISZERO PUSH2 0x362 JUMPI PUSH1 0x20 MUL DUP3 ADD SWAP2 SWAP1 PUSH1 0x0 MSTORE PUSH1 0x20 PUSH1 0x0 KECCAK256 SWAP1 JUMPDEST DUP2 PUSH1 0x0 SWAP1 SLOAD SWAP1 PUSH2 0x100 EXP SWAP1 DIV PUSH20 0xFFFFFFFFFFFFFFFFFFFFFFFFFFFFFFFFFFFFFFFF AND PUSH20 0xFFFFFFFFFFFFFFFFFFFFFFFFFFFFFFFFFFFFFFFF AND DUP2 MSTORE PUSH1 0x20 ADD SWAP1 PUSH1 0x1 ADD SWAP1 DUP1 DUP4 GT PUSH2 0x318 JUMPI JUMPDEST POP POP POP POP POP SWAP1 POP SWAP1 JUMP JUMPDEST PUSH1 0x1 PUSH1 0x20 MSTORE DUP1 PUSH1 0x0 MSTORE PUSH1 0x40 PUSH1 0x0 KECCAK256 PUSH1 0x0 SWAP2 POP SWAP1 POP DUP1 PUSH1 0x0 ADD SLOAD SWAP1 DUP1 PUSH1 0x1 ADD SLOAD SWAP1 POP DUP3 JUMP JUMPDEST PUSH1 0x2 DUP2 DUP2 SLOAD DUP2 LT PUSH2 0x3A0 JUMPI PUSH1 0x0 DUP1 REVERT JUMPDEST SWAP1 PUSH1 0x0 MSTORE PUSH1 0x20 PUSH1 0x0 KECCAK256 ADD PUSH1 0x0 SWAP2 POP SLOAD SWAP1 PUSH2 0x100 EXP SWAP1 DIV PUSH20 0xFFFFFFFFFFFFFFFFFFFFFFFFFFFFFFFFFFFFFFFF AND DUP2 JUMP JUMPDEST PUSH2 0x3E3 PUSH8 0x19ADC25E74B1A7DA PUSH1 0xC0 SHL PUSH2 0x9A3 JUMP JUMPDEST PUSH2 0x3F7 PUSH8 0x4256A3A2328D66B4 PUSH1 0xC0 SHL PUSH2 0x9A3 JUMP JUMPDEST PUSH2 0x40B PUSH8 0x20945B69A3E8A74D PUSH1 0xC0 SHL PUSH2 0x9A3 JUMP JUMPDEST PUSH1 0x0 PUSH1 0x1 PUSH1 0x0 CALLER PUSH20 0xFFFFFFFFFFFFFFFFFFFFFFFFFFFFFFFFFFFFFFFF AND PUSH20 0xFFFFFFFFFFFFFFFFFFFFFFFFFFFFFFFFFFFFFFFF AND DUP2 MSTORE PUSH1 0x20 ADD SWAP1 DUP2 MSTORE PUSH1 0x20 ADD PUSH1 0x0 KECCAK256 PUSH1 0x0 ADD SLOAD SWAP1 POP PUSH2 0x466 PUSH8 0x440121610B31FB9A PUSH1 0xC0 SHL PUSH2 0x9A3 JUMP JUMPDEST PUSH1 0x1 PUSH1 0x0 CALLER PUSH20 0xFFFFFFFFFFFFFFFFFFFFFFFFFFFFFFFFFFFFFFFF AND PUSH20 0xFFFFFFFFFFFFFFFFFFFFFFFFFFFFFFFFFFFFFFFF AND DUP2 MSTORE PUSH1 0x20 ADD SWAP1 DUP2 MSTORE PUSH1 0x20 ADD PUSH1 0x0 KECCAK256 PUSH1 0x0 ADD PUSH1 0x0 DUP2 SLOAD DUP1 SWAP3 SWAP2 SWAP1 PUSH2 0x4B9 SWAP1 PUSH2 0xCA3 JUMP JUMPDEST SWAP2 SWAP1 POP SSTORE POP PUSH2 0x4D2 PUSH8 0xC90FB10427608B42 PUSH1 0xC0 SHL PUSH2 0x9A3 JUMP JUMPDEST PUSH2 0x4E6 PUSH8 0x1829EEF12EC62450 PUSH1 0xC0 SHL PUSH2 0x9A3 JUMP JUMPDEST PUSH1 0x1 PUSH1 0x0 CALLER PUSH20 0xFFFFFFFFFFFFFFFFFFFFFFFFFFFFFFFFFFFFFFFF AND PUSH20 0xFFFFFFFFFFFFFFFFFFFFFFFFFFFFFFFFFFFFFFFF AND DUP2 MSTORE PUSH1 0x20 ADD SWAP1 DUP2 MSTORE PUSH1 0x20 ADD PUSH1 0x0 KECCAK256 PUSH1 0x2 ADD CALLVALUE SWAP1 DUP1 PUSH1 0x1 DUP2 SLOAD ADD DUP1 DUP3 SSTORE DUP1 SWAP2 POP POP PUSH1 0x1 SWAP1 SUB SWAP1 PUSH1 0x0 MSTORE PUSH1 0x20 PUSH1 0x0 KECCAK256 ADD PUSH1 0x0 SWAP1 SWAP2 SWAP1 SWAP2 SWAP1 SWAP2 POP SSTORE PUSH2 0x563 PUSH8 0x5513725680C1127A PUSH1 0xC0 SHL PUSH2 0x9A3 JUMP JUMPDEST CALLVALUE PUSH1 0x1 PUSH1 0x0 CALLER PUSH20 0xFFFFFFFFFFFFFFFFFFFFFFFFFFFFFFFFFFFFFFFF AND PUSH20 0xFFFFFFFFFFFFFFFFFFFFFFFFFFFFFFFFFFFFFFFF AND DUP2 MSTORE PUSH1 0x20 ADD SWAP1 DUP2 MSTORE PUSH1 0x20 ADD PUSH1 0x0 KECCAK256 PUSH1 0x1 ADD PUSH1 0x0 DUP3 DUP3 SLOAD PUSH2 0x5B5 SWAP2 SWAP1 PUSH2 0xCEB JUMP JUMPDEST SWAP3 POP POP DUP2 SWAP1 SSTORE POP PUSH2 0x5D0 PUSH8 0x37CFE2ED68CF16B7 PUSH1 0xC0 SHL PUSH2 0x9A3 JUMP JUMPDEST PUSH2 0x5E4 PUSH8 0x29E7706528DB8A29 PUSH1 0xC0 SHL PUSH2 0x9A3 JUMP JUMPDEST PUSH1 0x0 DUP2 SUB PUSH2 0x690 JUMPI PUSH2 0x600 PUSH8 0x73C885A07D3D8DA1 PUSH1 0xC0 SHL PUSH2 0x9A3 JUMP JUMPDEST PUSH2 0x614 PUSH8 0xBC683F0762748307 PUSH1 0xC0 SHL PUSH2 0x9A3 JUMP JUMPDEST PUSH2 0x628 PUSH8 0xA36D9762597215FC PUSH1 0xC0 SHL PUSH2 0x9A3 JUMP JUMPDEST PUSH1 0x2 CALLER SWAP1 DUP1 PUSH1 0x1 DUP2 SLOAD ADD DUP1 DUP3 SSTORE DUP1 SWAP2 POP POP PUSH1 0x1 SWAP1 SUB SWAP1 PUSH1 0x0 MSTORE PUSH1 0x20 PUSH1 0x0 KECCAK256 ADD PUSH1 0x0 SWAP1 SWAP2 SWAP1 SWAP2 SWAP1 SWAP2 PUSH2 0x100 EXP DUP2 SLOAD DUP2 PUSH20 0xFFFFFFFFFFFFFFFFFFFFFFFFFFFFFFFFFFFFFFFF MUL NOT AND SWAP1 DUP4 PUSH20 0xFFFFFFFFFFFFFFFFFFFFFFFFFFFFFFFFFFFFFFFF AND MUL OR SWAP1 SSTORE POP PUSH2 0x6A5 JUMP JUMPDEST PUSH2 0x6A4 PUSH8 0xD010F5A09C83C942 PUSH1 0xC0 SHL PUSH2 0x9A3 JUMP JUMPDEST JUMPDEST PUSH2 0x6B9 PUSH8 0xEB304AAB096D6DF6 PUSH1 0xC0 SHL PUSH2 0x9A3 JUMP JUMPDEST PUSH2 0x6CD PUSH8 0x826887CD67B98E84 PUSH1 0xC0 SHL PUSH2 0x9A3 JUMP JUMPDEST PUSH32 0x553260A2E46B0577270D8992DB02D30856CA880144C72D6E9503760946AEF13 CALLER CALLVALUE PUSH1 0x40 MLOAD PUSH2 0x6FE SWAP3 SWAP2 SWAP1 PUSH2 0xD1F JUMP JUMPDEST PUSH1 0x40 MLOAD DUP1 SWAP2 SUB SWAP1 LOG1 POP JUMP JUMPDEST PUSH2 0x71D PUSH8 0x6167D08E62C3E576 PUSH1 0xC0 SHL PUSH2 0x9A3 JUMP JUMPDEST PUSH2 0x731 PUSH8 0x32678D4DD3FE966D PUSH1 0xC0 SHL PUSH2 0x9A3 JUMP JUMPDEST PUSH2 0x745 PUSH8 0x8A7D2D0550F93065 PUSH1 0xC0 SHL PUSH2 0x9A3 JUMP JUMPDEST PUSH2 0x759 PUSH8 0xA00493197FAB27A8 PUSH1 0xC0 SHL PUSH2 0x9A3 JUMP JUMPDEST PUSH2 0x76D PUSH8 0xF0E8D4CDA7132B6D PUSH1 0xC0 SHL PUSH2 0x9A3 JUMP JUMPDEST CALLER PUSH20 0xFFFFFFFFFFFFFFFFFFFFFFFFFFFFFFFFFFFFFFFF AND PUSH1 0x0 DUP1 SLOAD SWAP1 PUSH2 0x100 EXP SWAP1 DIV PUSH20 0xFFFFFFFFFFFFFFFFFFFFFFFFFFFFFFFFFFFFFFFF AND PUSH20 0xFFFFFFFFFFFFFFFFFFFFFFFFFFFFFFFFFFFFFFFF AND EQ PUSH2 0x7FB JUMPI PUSH1 0x40 MLOAD PUSH32 0x8C379A000000000000000000000000000000000000000000000000000000000 DUP2 MSTORE PUSH1 0x4 ADD PUSH2 0x7F2 SWAP1 PUSH2 0xDA5 JUMP JUMPDEST PUSH1 0x40 MLOAD DUP1 SWAP2 SUB SWAP1 REVERT JUMPDEST PUSH2 0x80F PUSH8 0xBC2381AF2B125095 PUSH1 0xC0 SHL PUSH2 0x9A3 JUMP JUMPDEST PUSH2 0x823 PUSH8 0xAAF901D5401A80D5 PUSH1 0xC0 SHL PUSH2 0x9A3 JUMP JUMPDEST PUSH2 0x837 PUSH8 0x6F923A6D45D9A32B PUSH1 0xC0 SHL PUSH2 0x9A3 JUMP JUMPDEST PUSH2 0x84B PUSH8 0xDFA67B2F958EF621 PUSH1 0xC0 SHL PUSH2 0x9A3 JUMP JUMPDEST DUP1 PUSH2 0x860 PUSH8 0xF15D0D5398EBD050 PUSH1 0xC0 SHL PUSH2 0x9A3 JUMP JUMPDEST PUSH2 0x874 PUSH8 0x7FC49B95C3E5956A PUSH1 0xC0 SHL PUSH2 0x9A3 JUMP JUMPDEST PUSH2 0x888 PUSH8 0x59EBA0CA20D557D3 PUSH1 0xC0 SHL PUSH2 0x9A3 JUMP JUMPDEST PUSH2 0x89C PUSH8 0xC59F75BBBC7B6826 PUSH1 0xC0 SHL PUSH2 0x9A3 JUMP JUMPDEST SELFBALANCE DUP2 GT ISZERO PUSH2 0x8DF JUMPI PUSH1 0x40 MLOAD PUSH32 0x8C379A000000000000000000000000000000000000000000000000000000000 DUP2 MSTORE PUSH1 0x4 ADD PUSH2 0x8D6 SWAP1 PUSH2 0xE37 JUMP JUMPDEST PUSH1 0x40 MLOAD DUP1 SWAP2 SUB SWAP1 REVERT JUMPDEST PUSH2 0x8F3 PUSH8 0xA8F62F56C5A2DF81 PUSH1 0xC0 SHL PUSH2 0x9A3 JUMP JUMPDEST PUSH2 0x907 PUSH8 0xE1E3A189789BFE6D PUSH1 0xC0 SHL PUSH2 0x9A3 JUMP JUMPDEST PUSH2 0x91B PUSH8 0x878B538B08D3302A PUSH1 0xC0 SHL PUSH2 0x9A3 JUMP JUMPDEST PUSH2 0x92F PUSH8 0xFBDCB6B1628D7FA6 PUSH1 0xC0 SHL PUSH2 0x9A3 JUMP JUMPDEST PUSH2 0x943 PUSH8 0xA0AE10C828E5FB27 PUSH1 0xC0 SHL PUSH2 0x9A3 JUMP JUMPDEST PUSH2 0x957 PUSH8 0x80C2729AA0B38A15 PUSH1 0xC0 SHL PUSH2 0x9A3 JUMP JUMPDEST DUP3 PUSH20 0xFFFFFFFFFFFFFFFFFFFFFFFFFFFFFFFFFFFFFFFF AND PUSH2 0x8FC DUP4 SWAP1 DUP2 ISZERO MUL SWAP1 PUSH1 0x40 MLOAD PUSH1 0x0 PUSH1 0x40 MLOAD DUP1 DUP4 SUB DUP2 DUP6 DUP9 DUP9 CALL SWAP4 POP POP POP POP ISZERO DUP1 ISZERO PUSH2 0x99D JUMPI RETURNDATASIZE PUSH1 0x0 DUP1 RETURNDATACOPY RETURNDATASIZE PUSH1 0x0 REVERT JUMPDEST POP POP POP POP JUMP JUMPDEST POP JUMP JUMPDEST PUSH1 0x0 DUP1 REVERT JUMPDEST PUSH1 0x0 PUSH20 0xFFFFFFFFFFFFFFFFFFFFFFFFFFFFFFFFFFFFFFFF DUP3 AND SWAP1 POP SWAP2 SWAP1 POP JUMP JUMPDEST PUSH1 0x0 PUSH2 0x9D6 DUP3 PUSH2 0x9AB JUMP JUMPDEST SWAP1 POP SWAP2 SWAP1 POP JUMP JUMPDEST PUSH2 0x9E6 DUP2 PUSH2 0x9CB JUMP JUMPDEST DUP2 EQ PUSH2 0x9F1 JUMPI PUSH1 0x0 DUP1 REVERT JUMPDEST POP JUMP JUMPDEST PUSH1 0x0 DUP2 CALLDATALOAD SWAP1 POP PUSH2 0xA03 DUP2 PUSH2 0x9DD JUMP JUMPDEST SWAP3 SWAP2 POP POP JUMP JUMPDEST PUSH1 0x0 PUSH1 0x20 DUP3 DUP5 SUB SLT ISZERO PUSH2 0xA1F JUMPI PUSH2 0xA1E PUSH2 0x9A6 JUMP JUMPDEST JUMPDEST PUSH1 0x0 PUSH2 0xA2D DUP5 DUP3 DUP6 ADD PUSH2 0x9F4 JUMP JUMPDEST SWAP2 POP POP SWAP3 SWAP2 POP POP JUMP JUMPDEST PUSH1 0x0 DUP2 SWAP1 POP SWAP2 SWAP1 POP JUMP JUMPDEST PUSH2 0xA49 DUP2 PUSH2 0xA36 JUMP JUMPDEST DUP3 MSTORE POP POP JUMP JUMPDEST PUSH1 0x0 PUSH1 0x20 DUP3 ADD SWAP1 POP PUSH2 0xA64 PUSH1 0x0 DUP4 ADD DUP5 PUSH2 0xA40 JUMP JUMPDEST SWAP3 SWAP2 POP POP JUMP JUMPDEST PUSH2 0xA73 DUP2 PUSH2 0x9CB JUMP JUMPDEST DUP3 MSTORE POP POP JUMP JUMPDEST PUSH1 0x0 PUSH1 0x20 DUP3 ADD SWAP1 POP PUSH2 0xA8E PUSH1 0x0 DUP4 ADD DUP5 PUSH2 0xA6A JUMP JUMPDEST SWAP3 SWAP2 POP POP JUMP JUMPDEST PUSH1 0x0 DUP2 MLOAD SWAP1 POP SWAP2 SWAP1 POP JUMP JUMPDEST PUSH1 0x0 DUP3 DUP3 MSTORE PUSH1 0x20 DUP3 ADD SWAP1 POP SWAP3 SWAP2 POP POP JUMP JUMPDEST PUSH1 0x0 DUP2 SWAP1 POP PUSH1 0x20 DUP3 ADD SWAP1 POP SWAP2 SWAP1 POP JUMP JUMPDEST PUSH2 0xAC9 DUP2 PUSH2 0x9CB JUMP JUMPDEST DUP3 MSTORE POP POP JUMP JUMPDEST PUSH1 0x0 PUSH2 0xADB DUP4 DUP4 PUSH2 0xAC0 JUMP JUMPDEST PUSH1 0x20 DUP4 ADD SWAP1 POP SWAP3 SWAP2 POP POP JUMP JUMPDEST PUSH1 0x0 PUSH1 0x20 DUP3 ADD SWAP1 POP SWAP2 SWAP1 POP JUMP JUMPDEST PUSH1 0x0 PUSH2 0xAFF DUP3 PUSH2 0xA94 JUMP JUMPDEST PUSH2 0xB09 DUP2 DUP6 PUSH2 0xA9F JUMP JUMPDEST SWAP4 POP PUSH2 0xB14 DUP4 PUSH2 0xAB0 JUMP JUMPDEST DUP1 PUSH1 0x0 JUMPDEST DUP4 DUP2 LT ISZERO PUSH2 0xB45 JUMPI DUP2 MLOAD PUSH2 0xB2C DUP9 DUP3 PUSH2 0xACF JUMP JUMPDEST SWAP8 POP PUSH2 0xB37 DUP4 PUSH2 0xAE7 JUMP JUMPDEST SWAP3 POP POP PUSH1 0x1 DUP2 ADD SWAP1 POP PUSH2 0xB18 JUMP JUMPDEST POP DUP6 SWAP4 POP POP POP POP SWAP3 SWAP2 POP POP JUMP JUMPDEST PUSH1 0x0 PUSH1 0x20 DUP3 ADD SWAP1 POP DUP2 DUP2 SUB PUSH1 0x0 DUP4 ADD MSTORE PUSH2 0xB6C DUP2 DUP5 PUSH2 0xAF4 JUMP JUMPDEST SWAP1 POP SWAP3 SWAP2 POP POP JUMP JUMPDEST PUSH1 0x0 PUSH1 0x40 DUP3 ADD SWAP1 POP PUSH2 0xB89 PUSH1 0x0 DUP4 ADD DUP6 PUSH2 0xA40 JUMP JUMPDEST PUSH2 0xB96 PUSH1 0x20 DUP4 ADD DUP5 PUSH2 0xA40 JUMP JUMPDEST SWAP4 SWAP3 POP POP POP JUMP JUMPDEST PUSH2 0xBA6 DUP2 PUSH2 0xA36 JUMP JUMPDEST DUP2 EQ PUSH2 0xBB1 JUMPI PUSH1 0x0 DUP1 REVERT JUMPDEST POP JUMP JUMPDEST PUSH1 0x0 DUP2 CALLDATALOAD SWAP1 POP PUSH2 0xBC3 DUP2 PUSH2 0xB9D JUMP JUMPDEST SWAP3 SWAP2 POP POP JUMP JUMPDEST PUSH1 0x0 PUSH1 0x20 DUP3 DUP5 SUB SLT ISZERO PUSH2 0xBDF JUMPI PUSH2 0xBDE PUSH2 0x9A6 JUMP JUMPDEST JUMPDEST PUSH1 0x0 PUSH2 0xBED DUP5 DUP3 DUP6 ADD PUSH2 0xBB4 JUMP JUMPDEST SWAP2 POP POP SWAP3 SWAP2 POP POP JUMP JUMPDEST PUSH1 0x0 PUSH2 0xC01 DUP3 PUSH2 0x9AB JUMP JUMPDEST SWAP1 POP SWAP2 SWAP1 POP JUMP JUMPDEST PUSH2 0xC11 DUP2 PUSH2 0xBF6 JUMP JUMPDEST DUP2 EQ PUSH2 0xC1C JUMPI PUSH1 0x0 DUP1 REVERT JUMPDEST POP JUMP JUMPDEST PUSH1 0x0 DUP2 CALLDATALOAD SWAP1 POP PUSH2 0xC2E DUP2 PUSH2 0xC08 JUMP JUMPDEST SWAP3 SWAP2 POP POP JUMP JUMPDEST PUSH1 0x0 DUP1 PUSH1 0x40 DUP4 DUP6 SUB SLT ISZERO PUSH2 0xC4B JUMPI PUSH2 0xC4A PUSH2 0x9A6 JUMP JUMPDEST JUMPDEST PUSH1 0x0 PUSH2 0xC59 DUP6 DUP3 DUP7 ADD PUSH2 0xC1F JUMP JUMPDEST SWAP3 POP POP PUSH1 0x20 PUSH2 0xC6A DUP6 DUP3 DUP7 ADD PUSH2 0xBB4 JUMP JUMPDEST SWAP2 POP POP SWAP3 POP SWAP3 SWAP1 POP JUMP JUMPDEST PUSH32 0x4E487B7100000000000000000000000000000000000000000000000000000000 PUSH1 0x0 MSTORE PUSH1 0x11 PUSH1 0x4 MSTORE PUSH1 0x24 PUSH1 0x0 REVERT JUMPDEST PUSH1 0x0 PUSH2 0xCAE DUP3 PUSH2 0xA36 JUMP JUMPDEST SWAP2 POP PUSH32 0xFFFFFFFFFFFFFFFFFFFFFFFFFFFFFFFFFFFFFFFFFFFFFFFFFFFFFFFFFFFFFFFF DUP3 SUB PUSH2 0xCE0 JUMPI PUSH2 0xCDF PUSH2 0xC74 JUMP JUMPDEST JUMPDEST PUSH1 0x1 DUP3 ADD SWAP1 POP SWAP2 SWAP1 POP JUMP JUMPDEST PUSH1 0x0 PUSH2 0xCF6 DUP3 PUSH2 0xA36 JUMP JUMPDEST SWAP2 POP PUSH2 0xD01 DUP4 PUSH2 0xA36 JUMP JUMPDEST SWAP3 POP DUP3 DUP3 ADD SWAP1 POP DUP1 DUP3 GT ISZERO PUSH2 0xD19 JUMPI PUSH2 0xD18 PUSH2 0xC74 JUMP JUMPDEST JUMPDEST SWAP3 SWAP2 POP POP JUMP JUMPDEST PUSH1 0x0 PUSH1 0x40 DUP3 ADD SWAP1 POP PUSH2 0xD34 PUSH1 0x0 DUP4 ADD DUP6 PUSH2 0xA6A JUMP JUMPDEST PUSH2 0xD41 PUSH1 0x20 DUP4 ADD DUP5 PUSH2 0xA40 JUMP JUMPDEST SWAP4 SWAP3 POP POP POP JUMP JUMPDEST PUSH1 0x0 DUP3 DUP3 MSTORE PUSH1 0x20 DUP3 ADD SWAP1 POP SWAP3 SWAP2 POP POP JUMP JUMPDEST PUSH32 0x596F7520617265206E6F7420616E206F776E65722E0000000000000000000000 PUSH1 0x0 DUP3 ADD MSTORE POP JUMP JUMPDEST PUSH1 0x0 PUSH2 0xD8F PUSH1 0x15 DUP4 PUSH2 0xD48 JUMP JUMPDEST SWAP2 POP PUSH2 0xD9A DUP3 PUSH2 0xD59 JUMP JUMPDEST PUSH1 0x20 DUP3 ADD SWAP1 POP SWAP2 SWAP1 POP JUMP JUMPDEST PUSH1 0x0 PUSH1 0x20 DUP3 ADD SWAP1 POP DUP2 DUP2 SUB PUSH1 0x0 DUP4 ADD MSTORE PUSH2 0xDBE DUP2 PUSH2 0xD82 JUMP JUMPDEST SWAP1 POP SWAP2 SWAP1 POP JUMP JUMPDEST PUSH32 0x5769746864726177616C20616D6F756E7420657863656564732062616C616E63 PUSH1 0x0 DUP3 ADD MSTORE PUSH32 0x652E000000000000000000000000000000000000000000000000000000000000 PUSH1 0x20 DUP3 ADD MSTORE POP JUMP JUMPDEST PUSH1 0x0 PUSH2 0xE21 PUSH1 0x22 DUP4 PUSH2 0xD48 JUMP JUMPDEST SWAP2 POP PUSH2 0xE2C DUP3 PUSH2 0xDC5 JUMP JUMPDEST PUSH1 0x40 DUP3 ADD SWAP1 POP SWAP2 SWAP1 POP JUMP JUMPDEST PUSH1 0x0 PUSH1 0x20 DUP3 ADD SWAP1 POP DUP2 DUP2 SUB PUSH1 0x0 DUP4 ADD MSTORE PUSH2 0xE50 DUP2 PUSH2 0xE14 JUMP JUMPDEST SWAP1 POP SWAP2 SWAP1 POP JUMP INVALID LOG2 PUSH5 0x6970667358 0x22 SLT KECCAK256 0xC2 DUP15 0xA8 BLOCKHASH PUSH29 0xAAAECD2CFA547D4DC3CA7C92A3DC80B25337D1AEED8C8A82DFF7366473 PUSH16 0x6C634300081400330000000000000000 "},"gasEstimates":{"creation":{"codeDepositCost":"745000","executionCost":"infinite","totalCost":"infinite"},"external":{"donate()":"infinite","donors(address)":"infinite","donorsAddresses(uint256)":"4978","getDonors()":"infinite","getOwner()":"infinite","getPaymentsSum(address)":"infinite","withdraw(address,uint256)":"infinite"},"internal":{"c_aad50f87(bytes8)":"11","c_falseaad50f87(bytes8)":"infinite","c_trueaad50f87(bytes8)":"infinite"}},"methodIdentifiers":{"donate()":"ed88c68e","donors(address)":"ca0cdea8","donorsAddresses(uint256)":"d3cbd51a","getDonors()":"96f300d4","getOwner()":"893d20e8","getPaymentsSum(address)":"6e508a8e","withdraw(address,uint256)":"f3fef3a3"}},"storageLayout":{"storage":[{"astId":87,"contract":"contracts/Donation.sol:Donation","label":"owner","offset":0,"slot":"0","type":"t_address"},{"astId":117,"contract":"contracts/Donation.sol:Donation","label":"donors","offset":0,"slot":"1","type":"t_mapping(t_address,t_struct(Donor)112_storage)"},{"astId":120,"contract":"contracts/Donation.sol:Donation","label":"donorsAddresses","offset":0,"slot":"2","type":"t_array(t_address)dyn_storage"}],"types":{"t_address":{"encoding":"inplace","label":"address","numberOfBytes":"20"},"t_array(t_address)dyn_storage":{"base":"t_address","encoding":"dynamic_array","label":"address[]","numberOfBytes":"32"},"t_array(t_uint256)dyn_storage":{"base":"t_uint256","encoding":"dynamic_array","label":"uint256[]","numberOfBytes":"32"},"t_mapping(t_address,t_struct(Donor)112_storage)":{"encoding":"mapping","key":"t_address","label":"mapping(address => struct Donation.Donor)","numberOfBytes":"32","value":"t_struct(Donor)112_storage"},"t_struct(Donor)112_storage":{"encoding":"inplace","label":"struct Donation.Donor","members":[{"astId":106,"contract":"contracts/Donation.sol:Donation","label":"numPayments","offset":0,"slot":"0","type":"t_uint256"},{"astId":108,"contract":"contracts/Donation.sol:Donation","label":"paymentsSum","offset":0,"slot":"1","type":"t_uint256"},{"astId":111,"contract":"contracts/Donation.sol:Donation","label":"payments","offset":0,"slot":"2","type":"t_array(t_uint256)dyn_storage"}],"numberOfBytes":"96"},"t_uint256":{"encoding":"inplace","label":"uint256","numberOfBytes":"32"}}},"userdoc":{"kind":"user","methods":{},"version":1}}}}